{
  "_format": "hh-sol-artifact-1",
  "contractName": "Kofi",
  "sourceName": "contracts/Kofi.sol",
  "abi": [
    {
      "inputs": [],
      "stateMutability": "nonpayable",
      "type": "constructor"
    },
    {
      "inputs": [],
      "name": "owner",
      "outputs": [
        {
          "internalType": "address payable",
          "name": "",
          "type": "address"
        }
      ],
      "stateMutability": "view",
      "type": "function"
    },
    {
      "inputs": [],
      "name": "sentToOwner",
      "outputs": [],
      "stateMutability": "payable",
      "type": "function"
    },
    {
      "stateMutability": "payable",
      "type": "receive"
    }
  ],
  "bytecode": "0x608060405234801561001057600080fd5b50600080546001600160a01b03191673fcf1f267fd45666a7c42e63cdafa340eca84b96a1790556101d2806100466000396000f3fe60806040526004361061002d5760003560e01c8063806d754f146100c95780638da5cb5b146100d3576100c4565b366100c457600034116100875760405162461bcd60e51b815260206004820152601b60248201527f596f75206e65656420746f2073656e6420736f6d65204574686572000000000060448201526064015b60405180910390fd5b600080546040516001600160a01b03909116913480156108fc02929091818181858888f193505050501580156100c1573d6000803e3d6000fd5b50005b600080fd5b6100d161010f565b005b3480156100df57600080fd5b506000546100f3906001600160a01b031681565b6040516001600160a01b03909116815260200160405180910390f35b6000341161015f5760405162461bcd60e51b815260206004820152601a60248201527f596f75206e65656420746f2073656e6420736f6d657468696e67000000000000604482015260640161007e565b600080546040516001600160a01b03909116913480156108fc02929091818181858888f19350505050158015610199573d6000803e3d6000fd5b5056fea264697066735822122087225e768fb556af801ffc82eac441cd87617cce232e3471e4b5eba481e9fa0964736f6c63430008020033",
  "linkReferences": {},
  "deployedLinkReferences": {}
}